{
  "contractName": "Mortgage",
  "abi": [
    {
      "inputs": [],
      "stateMutability": "nonpayable",
      "type": "constructor"
    },
    {
      "anonymous": false,
      "inputs": [
        {
          "indexed": false,
          "internalType": "uint256",
          "name": "loanAmount",
          "type": "uint256"
        },
        {
          "indexed": false,
          "internalType": "uint256",
          "name": "monthlyPayment",
          "type": "uint256"
        }
      ],
      "name": "LoanApproved",
      "type": "event"
    },
    {
      "anonymous": false,
      "inputs": [
        {
          "indexed": false,
          "internalType": "uint256",
          "name": "amount",
          "type": "uint256"
        }
      ],
      "name": "PaymentReceived",
      "type": "event"
    },
    {
      "inputs": [],
      "name": "homeownerAddress",
      "outputs": [
        {
          "internalType": "address payable",
          "name": "",
          "type": "address"
        }
      ],
      "stateMutability": "view",
      "type": "function"
    },
    {
      "inputs": [],
      "name": "loanAmount",
      "outputs": [
        {
          "internalType": "uint256",
          "name": "",
          "type": "uint256"
        }
      ],
      "stateMutability": "view",
      "type": "function"
    },
    {
      "inputs": [],
      "name": "loanApproved",
      "outputs": [
        {
          "internalType": "bool",
          "name": "",
          "type": "bool"
        }
      ],
      "stateMutability": "view",
      "type": "function"
    },
    {
      "inputs": [],
      "name": "monthlyPayment",
      "outputs": [
        {
          "internalType": "uint256",
          "name": "",
          "type": "uint256"
        }
      ],
      "stateMutability": "view",
      "type": "function"
    },
    {
      "inputs": [],
      "name": "mortgageHolder",
      "outputs": [
        {
          "internalType": "address payable",
          "name": "",
          "type": "address"
        }
      ],
      "stateMutability": "view",
      "type": "function"
    },
    {
      "inputs": [],
      "name": "remainingBalance",
      "outputs": [
        {
          "internalType": "uint256",
          "name": "",
          "type": "uint256"
        }
      ],
      "stateMutability": "view",
      "type": "function"
    },
    {
      "inputs": [],
      "name": "totalMortgages",
      "outputs": [
        {
          "internalType": "uint256",
          "name": "",
          "type": "uint256"
        }
      ],
      "stateMutability": "view",
      "type": "function"
    },
    {
      "inputs": [],
      "name": "getHomeowner",
      "outputs": [
        {
          "internalType": "address payable",
          "name": "",
          "type": "address"
        }
      ],
      "stateMutability": "view",
      "type": "function"
    },
    {
      "inputs": [
        {
          "internalType": "uint256",
          "name": "_loanAmount",
          "type": "uint256"
        },
        {
          "internalType": "uint256",
          "name": "_monthlyPayment",
          "type": "uint256"
        },
        {
          "internalType": "address payable",
          "name": "_homeowner",
          "type": "address"
        }
      ],
      "name": "submitLoan",
      "outputs": [],
      "stateMutability": "nonpayable",
      "type": "function"
    },
    {
      "inputs": [],
      "name": "makePayment",
      "outputs": [],
      "stateMutability": "payable",
      "type": "function"
    },
    {
      "inputs": [],
      "name": "withdrawRemainingBalance",
      "outputs": [],
      "stateMutability": "nonpayable",
      "type": "function"
    },
    {
      "inputs": [],
      "name": "getTotalMortgages",
      "outputs": [
        {
          "internalType": "uint256",
          "name": "",
          "type": "uint256"
        }
      ],
      "stateMutability": "view",
      "type": "function"
    }
  ],
  "bytecode": "0x608060405234801561000f575f80fd5b503360015f6101000a81548173ffffffffffffffffffffffffffffffffffffffff021916908373ffffffffffffffffffffffffffffffffffffffff160217905550610b798061005d5f395ff3fe6080604052600436106100a6575f3560e01c80639d585f7f116100635780639d585f7f146101a4578063a5fc7451146101ce578063b91d53c6146101f8578063d8d797001461020e578063da25de3c14610218578063f75dbeef14610242576100a6565b806305810831146100aa5780633b7687fb146100d25780633dc156fa146100fc5780635967a882146101265780636cb6b8141461015057806372cbe9f81461017a575b5f80fd5b3480156100b5575f80fd5b506100d060048036038101906100cb91906107cc565b61026c565b005b3480156100dd575f80fd5b506100e66103bd565b6040516100f3919061082b565b60405180910390f35b348015610107575f80fd5b506101106103c3565b60405161011d919061085e565b60405180910390f35b348015610131575f80fd5b5061013a6103d5565b6040516101479190610886565b60405180910390f35b34801561015b575f80fd5b506101646103fa565b6040516101719190610886565b60405180910390f35b348015610185575f80fd5b5061018e61041d565b60405161019b9190610886565b60405180910390f35b3480156101af575f80fd5b506101b8610444565b6040516101c5919061082b565b60405180910390f35b3480156101d9575f80fd5b506101e261044a565b6040516101ef919061082b565b60405180910390f35b348015610203575f80fd5b5061020c610453565b005b610216610598565b005b348015610223575f80fd5b5061022c61072f565b604051610239919061082b565b60405180910390f35b34801561024d575f80fd5b50610256610735565b604051610263919061082b565b60405180910390f35b60015f9054906101000a900473ffffffffffffffffffffffffffffffffffffffff1673ffffffffffffffffffffffffffffffffffffffff163373ffffffffffffffffffffffffffffffffffffffff16146102fb576040517f08c379a00000000000000000000000000000000000000000000000000000000081526004016102f29061091f565b60405180910390fd5b8260028190555081600381905550805f806101000a81548173ffffffffffffffffffffffffffffffffffffffff021916908373ffffffffffffffffffffffffffffffffffffffff16021790555082600481905550600160055f6101000a81548160ff02191690831515021790555060065f81548092919061037b9061096a565b91905055507e25a2d6ca1b3da40a46ecc2c7ecbddb416fe7180003a0155b7e7d782d895f2183836040516103b09291906109b1565b60405180910390a1505050565b60065481565b60055f9054906101000a900460ff1681565b60015f9054906101000a900473ffffffffffffffffffffffffffffffffffffffff1681565b5f8054906101000a900473ffffffffffffffffffffffffffffffffffffffff1681565b5f805f9054906101000a900473ffffffffffffffffffffffffffffffffffffffff16905090565b60025481565b5f600654905090565b60015f9054906101000a900473ffffffffffffffffffffffffffffffffffffffff1673ffffffffffffffffffffffffffffffffffffffff163373ffffffffffffffffffffffffffffffffffffffff16146104e2576040517f08c379a00000000000000000000000000000000000000000000000000000000081526004016104d99061091f565b60405180910390fd5b60055f9054906101000a900460ff1615610531576040517f08c379a000000000000000000000000000000000000000000000000000000000815260040161052890610a22565b60405180910390fd5b60015f9054906101000a900473ffffffffffffffffffffffffffffffffffffffff1673ffffffffffffffffffffffffffffffffffffffff166108fc4790811502906040515f60405180830381858888f19350505050158015610595573d5f803e3d5ffd5b50565b60015f9054906101000a900473ffffffffffffffffffffffffffffffffffffffff1673ffffffffffffffffffffffffffffffffffffffff163373ffffffffffffffffffffffffffffffffffffffff1614610627576040517f08c379a000000000000000000000000000000000000000000000000000000000815260040161061e9061091f565b60405180910390fd5b5f6004541161066b576040517f08c379a000000000000000000000000000000000000000000000000000000000815260040161066290610a8a565b60405180910390fd5b60035434146106af576040517f08c379a00000000000000000000000000000000000000000000000000000000081526004016106a690610af2565b60405180910390fd5b60045434106106dd575f6004819055505f60055f6101000a81548160ff0219169083151502179055506106f6565b3460045f8282546106ee9190610b10565b925050819055505b7f1a07f76ee25d689f09f51951e5b4594bb2e440b7935111a41ba06afeb50ff01434604051610725919061082b565b60405180910390a1565b60045481565b60035481565b5f80fd5b5f819050919050565b6107518161073f565b811461075b575f80fd5b50565b5f8135905061076c81610748565b92915050565b5f73ffffffffffffffffffffffffffffffffffffffff82169050919050565b5f61079b82610772565b9050919050565b6107ab81610791565b81146107b5575f80fd5b50565b5f813590506107c6816107a2565b92915050565b5f805f606084860312156107e3576107e261073b565b5b5f6107f08682870161075e565b93505060206108018682870161075e565b9250506040610812868287016107b8565b9150509250925092565b6108258161073f565b82525050565b5f60208201905061083e5f83018461081c565b92915050565b5f8115159050919050565b61085881610844565b82525050565b5f6020820190506108715f83018461084f565b92915050565b61088081610791565b82525050565b5f6020820190506108995f830184610877565b92915050565b5f82825260208201905092915050565b7f4f6e6c7920746865206d6f72746761676520686f6c6465722063616e2063616c5f8201527f6c20746869732066756e6374696f6e0000000000000000000000000000000000602082015250565b5f610909602f8361089f565b9150610914826108af565b604082019050919050565b5f6020820190508181035f830152610936816108fd565b9050919050565b7f4e487b71000000000000000000000000000000000000000000000000000000005f52601160045260245ffd5b5f6109748261073f565b91507fffffffffffffffffffffffffffffffffffffffffffffffffffffffffffffffff82036109a6576109a561093d565b5b600182019050919050565b5f6040820190506109c45f83018561081c565b6109d1602083018461081c565b9392505050565b7f4c6f616e206e6f742066756c6c792070616964206f66662079657400000000005f82015250565b5f610a0c601b8361089f565b9150610a17826109d8565b602082019050919050565b5f6020820190508181035f830152610a3981610a00565b9050919050565b7f4c6f616e2066756c6c792070616964206f6666000000000000000000000000005f82015250565b5f610a7460138361089f565b9150610a7f82610a40565b602082019050919050565b5f6020820190508181035f830152610aa181610a68565b9050919050565b7f496e636f7272656374207061796d656e7420616d6f756e7400000000000000005f82015250565b5f610adc60188361089f565b9150610ae782610aa8565b602082019050919050565b5f6020820190508181035f830152610b0981610ad0565b9050919050565b5f610b1a8261073f565b9150610b258361073f565b9250828203905081811115610b3d57610b3c61093d565b5b9291505056fea2646970667358221220261a8233c5a43d7cf29e79bf722eb0a18b04f595018e689f3183294ff5b69af864736f6c63430008150033",
  "immutableReferences": {},
  "source": "// SPDX-License-Identifier: MIT\r\npragma solidity ^0.8;\r\n\r\ncontract Mortgage {\r\n    address payable public homeownerAddress;\r\n    address payable public mortgageHolder;\r\n    uint256 public loanAmount;\r\n    uint256 public monthlyPayment;\r\n    uint256 public remainingBalance;\r\n    bool public loanApproved;\r\n    uint256 public totalMortgages;\r\n\r\n    event LoanApproved(uint256 loanAmount, uint256 monthlyPayment);\r\n    event PaymentReceived(uint256 amount);\r\n\r\n    constructor() {\r\n        mortgageHolder = payable(msg.sender);\r\n    }\r\n\r\n    modifier onlyMortgageHolder() {\r\n        require(msg.sender == mortgageHolder, \"Only the mortgage holder can call this function\");\r\n        _;\r\n    }\r\n\r\n    function getHomeowner() public view returns (address payable) {\r\n        return homeownerAddress;\r\n    }\r\n\r\n    function submitLoan(uint256 _loanAmount, uint256 _monthlyPayment, address payable _homeowner) external onlyMortgageHolder {\r\n        loanAmount = _loanAmount;\r\n        monthlyPayment = _monthlyPayment;\r\n        homeownerAddress = _homeowner;\r\n        remainingBalance = _loanAmount;\r\n        loanApproved = true;\r\n        totalMortgages++; // Increment total mortgages when a new loan is submitted\r\n        emit LoanApproved(_loanAmount, _monthlyPayment);\r\n    }\r\n\r\n    function makePayment() external payable onlyMortgageHolder {\r\n        require(remainingBalance > 0, \"Loan fully paid off\");\r\n        require(msg.value == monthlyPayment, \"Incorrect payment amount\");\r\n\r\n        if (msg.value >= remainingBalance) {\r\n            remainingBalance = 0;\r\n            loanApproved = false;\r\n        } else {\r\n            remainingBalance -= msg.value;\r\n        }\r\n\r\n        emit PaymentReceived(msg.value);\r\n    }\r\n\r\n    function withdrawRemainingBalance() external onlyMortgageHolder {\r\n        require(!loanApproved, \"Loan not fully paid off yet\");\r\n        mortgageHolder.transfer(address(this).balance);\r\n    }\r\n\r\n    // Function to retrieve the total number of mortgages\r\n    function getTotalMortgages() external view returns (uint256) {\r\n        return totalMortgages;\r\n    }\r\n}\r\n",
  "sourcePath": "C:\\Users\\ayush\\Desktop\\project3\\contracts\\Mortgage.sol",
  "compiler": {
    "name": "solc",
    "version": "0.8.21+commit.d9974bed.Emscripten.clang"
  },
  "schemaVersion": "3.4.16",
  "updatedAt": "2024-05-11T07:13:50.858Z",
  "devdoc": {
    "kind": "dev",
    "methods": {},
    "version": 1
  },
  "userdoc": {
    "kind": "user",
    "methods": {},
    "version": 1
  }
}